S0100000756172745F7472782E737265639B
S11300000EC01DC01CC01BC01AC019C018C017C028
S113001016C015C014C013C012C011C011C01124E1
S11300201FBECFE5D1E0DEBFCDBF20E0A0E6B0E04B
S113003001C01D92A136B207E1F733D053C0E0CF1F
S11300401F920F920FB60F9211248F939F9380915A
S1130050600081110BC081E18FB98EB1886F8EB9B8
S1130060809160008F5F8093600014C08091600075
S1130070813079F498B388E0892788BB8FE78FB9FA
S11300808EB18E6F8EB9809160008F5F8093600017
S113009001C013BE9F918F910F900FBE0F901F90C0
S11300A018952FE382E49FE0215080409040E1F7CF
S11300B000C000001092600087B38A6087BB88B3D9
S11300C092E0892788BB12BE83E389BD19BE9ABD1D
S11300D081E083BF789484E58DB98FEF8FB99EB1A9
S10B00E08EB9FFCFF894FFCFA5
S9030000FC
